:0400000028EF0BF0EA
:1000080000C01EF001C01DF002C01CF003C01BF0B0
:1000180004C01AF005C019F008C018F009C017F09C
:100028000AC016F00BC015F0E1CF27F0E2CF28F098
:10003800E9CF25F0EACF26F0F3CF23F0F4CF24F070
:10004800F5CF22F0F8CF1FF0F7CF20F0F6CF21F050
:10005800A1AA03D0A19A07EC0AF0F2A205D0F29265
:10006800292A29C040F5418022C0F5FF1FC0F8FFAA
:1000780020C0F7FF21C0F6FF23C0F3FF24C0F4FF20
:100088001EC000F01DC001F01CC002F01BC003F030
:100098001AC004F019C005F018C008F017C009F01C
:1000A80016C00AF015C00BF025C0E9FF26C0EAFF0C
:0A00B80027C0E1FF28C0E2FF11009D
:1000C2001E0E716E100E386E040E396E38C0E1FFCE
:1000D20039C0E2FFE69E38C0E1FF39C0E2FFE69C8C
:1000E200040E3824E16E000E3920E26EE68C180E02
:1000F200306E040E316E30C0E1FF31C0E2FFE69E89
:1001020030C0E1FF31C0E2FFE69C040E3024E16E14
:10011200000E3120E26EE68C020E3824E16E000EF3
:100122003920E26E2CC0E6FF2DC0E6FF010E382416
:10013200E16E000E3920E26E400EE66E38C0E9FF35
:1001420039C0EAFFEECF00F038C0E1FF39C0E2FF6C
:10015200400E0014E66E38C0E9FF39C0EAFFEECF68
:1001620000F0880E001238C0E1FF39C0E2FF00C083
:10017200E6FF38C02AF039C02BF0040E3818006EA2
:0601820000C038F012007D
:100188000B6A0A6A096A00500402F4CF09F0F3CF37
:1001980008F001500502F4CF0BF0F3CF0AF000503D
:1001A8000502F3500926F4500A22E86A0B2201508E
:1001B8000402F3500926F4500A22E86A0B2208C008
:1001C80000F009C001F00AC002F00BC003F01200F1
:1001D8000401286B296B42D03E8E28814250010AC7
:1001E800D8B4288350D03E8E4ED03E8E24BF16D031
:1001F80024C403F00F0E031603C000F0000E016EB6
:10020800003600900136360E0024E96E000E0120FB
:10021800EA6EEECF04F0EECF05F015D024C403F05B
:100228000F0E031603C000F0000E016E003600909A
:1002380001362E0E0024E96E000E0120EA6EEECF84
:1002480004F0EECF05F004C0E9FF05C0EAFFEECFE9
:1002580001F001A402D0010E286F15D020C401F0CE
:100268001F0E01160150000AB7E020C401F01F0E4E
:1002780001160150010AB7E020C401F01F0E011653
:100288000150020AB2E03EAE07D0280E3B6E040EC3
:0A0298003C6E3E80020E3F6E120025
:1002A20004012251010A0FE120C401F01F0E0116C0
:1002B2000150000A08E13E8E2151030A03E1010EBA
:1002C200426E01D0426A2251000AD8A48BD020C4C7
:1002D20001F01F0E01160150020AD8A483D024C4D3
:1002E20001F00F0E01160150000AD8B47BD03E8EE9
:1002F20024BF16D024C403F00F0E031603C000F06F
:10030200000E016E003600900136360E0024E96EB2
:10031200000E0120EA6EEECF04F0EECF05F015D00C
:1003220024C403F00F0E031603C000F0000E016E8A
:100332000036009001362E0E0024E96E000E0120D8
:10034200EA6EEECF04F0EECF05F02151030A07E189
:1003520004C0E1FF05C0E2FF840EE66E43D024C470
:1003620000F00F0E0016700E026E0F0E036E00509C
:100372000226D8B0032A02C0E9FF03C0EAFFFE0E3C
:10038200EE14006EEECF01F0FF0E011602C0E1FF87
:1003920003C0E2FF00C0E6FF01C0E6FF24AF11D0B8
:1003A20004C0E1FF05C0E2FFE66A040E0418006E15
:1003B20000C004F004C0E1FF05C0E2FF400EE66E9B
:1003C20011D004C0E1FF05C0E2FF880EE66E040E04
:1003D2000418006E00C004F004C0E1FF05C0E2FF93
:0603E200C80EE66E1200D9
:1003E8003E8E716A3A6A22C444F04450000A03E11E
:0E03F800100E436E03D0200E436E5FDE120027
:1004060004012051800AD8A471D0C00E3E6E64D07B
:10041600380E006E170E016E000E026E00C03BF025
:1004260001C03CF002C03DF0120E3F6E000E406E61
:100436005DD0030E006E000E016E22C404F0000EA5
:10044600056E9FDE6C0E0024E96E000E0120EA6E3A
:10045600EECF3BF0EECF3CF0EECF3DF0020E3B246C
:10046600F66E000E3C20F76E000E3D20F86E090079
:10047600F5CF00F00900F5CF01F000C03FF001C054
:1004860040F034D02251455C23E3030E006E000E8B
:10049600016E22C404F0000E056E73DE630E0024A6
:1004A600E96E000E0120EA6EEECF3BF0EECF3CF097
:1004B600EECF3DF03BC0F6FF3CC0F7FF3DC0F8FF76
:1004C6000900F5CF00F000C03FF0000E406E01D0ED
:1004D6003E6A0CD03E6A0AD02351010A99E02351A4
:0E04E600020AA7E02351030ACDE0F4D712006A
:1004F40020C401F01F0E01160150010A01E08DD045
:1005040004012451000A01E088D02151060A3FE188
:1005140034D04450010A17E1D80E006E160E016E55
:10052400000E026E120E0026000E0122022200C0EE
:100534003BF001C03CF002C03DF0090E3F6E000EDE
:10054400406EC00E3E6E23D04450010A12E1010EEB
:10055400006E170E016E000E026E00C03BF001C06B
:100564003CF002C03DF0210E3F6E000E406EC00E06
:100574003E6E0DD0800E3E6E0AD004012351210A36
:10058400C8E02351220AE0E02351230AF3E020C407
:1005940001F0600E0116050E006E005004E00132F9
:1005A400019EFF0FFBD70150010A01E036D022D093
:1005B40034D033D05E0E3B6E000E3C6E010E3F6EA7
:1005C400000E406EC10E3E6E28D0800E3E6E23C4D7
:1005D4005EF023D0510E3B6E000E3C6E010E3F6E5A
:1005E400000E406E810E3E6E18D0800E3E6E22C408
:1005F40051F013D004012151010ADAE02151090A12
:10060400D8E02151020AD6E021510A0ADEE0215144
:0C061400030AE0E021510B0AE8E01200AC
:10062000000E405C02E1080E3F5C10E23FC003F0A8
:1006300040C004F03550000A03E1010E356E05D0CC
:100640003550010A02E1020E356E04D0080E036E29
:10065000000E046E2EC0E1FF2FC0E2FFE6922EC016
:10066000E1FF2FC0E2FFE6902EC0E9FF2FC0EAFFB6
:10067000EECF00F02EC0E1FF2FC0E2FF04500010CB
:10068000E66E010E2E24E16E000E2F20E26E03C0F6
:10069000E6FF03503F5C006E04504058016E00C0FE
:1006A0003FF001C040F0280E0001616F040E626F40
:1006B0003EB02FD0035004102BE03BC0F6FF3CC0EF
:1006C000F7FF3DC0F8FF0900F5CF00F061C0E1FF82
:1006D00062C0E2FF00C0E6FF614B622B010E3B24CB
:1006E000006E000E3C20016E000E3D20026E00C028
:1006F0003BF001C03CF002C03DF0010E035C006E17
:10070000000E0458016E00C003F001C004F0D2D7FF
:1007100024D00350041021E03BC0E9FF3CC0EAFFB5
:1007200061C0E1FF62C0E2FFEECFE6FF614B622BEA
:10073000010E3B24006E000E3C20016E00C03BF019
:1007400001C03CF0010E035C006E000E0458016E07
:0C07500000C003F001C004F0DCD7120070
:10075C0020C401F0600E0116050E006E005004E07E
:10076C000132019EFF0FFBD70150000A01E058D067
:10077C0034D03E8E080E436E53D03FDE51D02EDE69
:10078C004FD0440E3B6E000E3C6E3E80010E3F6E11
:10079C003E8E46D01BDD44D07EDD42D03A0E006E3C
:1007AC00000E016E24510026D8B0012A00C03BF087
:1007BC0001C03CF03E80010E3F6E3E8E31D03E8E2D
:1007CC003A0EE16E000EE26E2451E126D8B0E22A18
:1007DC0022C4E6FF25D024D023D004012151050AE0
:1007EC00C8E02151060AC9E02151090AC8E021518B
:1007FC00080AC7E02151000ACDE02151010ACCE0E2
:10080C002151030AC9E021510A0AC8E021510B0AFF
:10081C00D6E02151070ADFE021510C0ADDE0DCD7DC
:02082C001200B8
:0E082E00160E6F6E9F0E6B6E3B0E696E120003
:10083C00D80E00016C6F160E6D6F000E6E6F5C0E95
:10084C00636F170E646F000E656F220E666F170EC6
:10085C00676F000E686F4A0E696F170E6A6F000E95
:04086C006B6F12009C
:10087000346A2EC0E1FF2FC0E2FFE66A040E2E1894
:10088000E16E2FC0E2FF000EE21AE66A57BE579EE5
:02089000120054
:080892005F5201E02EDE1200AE
:10089A00010E3224E96E000E3320EA6EEECF00F02C
:1008AA0000C002F0000E595C02E10250585C03E2FB
:1008BA0058C002F00AD00250585C006E000E595817
:1008CA00016E00C058F001C059F0036A0250035C7F
:1008DA001CE2280EE96E040EEA6E0350E926D8B02F
:1008EA00EA2AEECF00F055C0E1FF56C0E2FF00C091
:1008FA00E6FF010E5524006E000E5620016E00C060
:10090A0055F001C056F0032AE1D7000E006E595087
:10091A00005C02E15850000828E2010E5324E16EFF
:10092A00000E5420E26E080EE66E020E5324E16EAB
:10093A00000E5420E26E280EE66E040EE66E32C0F9
:10094A00E9FF33C0EAFFEECF00F000BC07D053C086
:10095A00E1FF54C0E2FFC80EE66E06D053C0E1FFC5
:10096A0054C0E2FF880EE66E19D0010E5324E16EE0
:10097A00000E5420E26E080EE66E020E5324E16E5B
:10098A00000E5420E26E200EE66E040EE66E53C090
:0E099A00E1FF54C0E2FF840EE66E579E12008D
:1009A8006D983EBE49D057AE28D0020E346E010E67
:1009B8002E24E16E000E2F20E26EE66A2EC0E1FFC3
:1009C8002FC0E2FFC80EE66E010E5324E16E000E42
:1009D8005420E26E080EE66E020E5324E16E000EFD
:1009E8005420E26E280EE66E040EE66E53C0E1FF58
:1009F80054C0E2FFC80EE66E1ED0010E5324E16E0D
:100A0800000E5420E26E080EE66E020E5324E16ECC
:100A1800000E5420E26E200EE66E040EE66E53C001
:100A2800E1FF54C0E2FF8C0EE66E2EC0E1FF2FC03E
:100A3800E2FF840EE66E7DD057BE7BD0040120AF66
:100A480051D04050275D02E13F50265D04E226C4A4
:100A58003FF027C440F0E0DD010E346E010E532450
:100A6800E16E000E5420E26E080EE66E020E53246C
:100A7800E16E000E5420E26E200EE66E040EE66E65
:100A880053C0E1FF54C0E2FF800EE66E526A010EC9
:100A98003224E16E000E3320E26E080EE66E020E7E
:100AA8003224E16E000E3320E26E200EE66E040E54
:100AB800E66E32C0E1FF33C0E2FF840EE66E010E3F
:100AC800526E020E2E24E16E000E2F20E26E280ECA
:100AD800E66E040EE66E2EC0E1FF2FC0E2FFC80EE0
:100AE800E66E27D0020E346E010E2E24E16E000E43
:100AF8002F20E26EE66A2EC0E1FF2FC0E2FFC80E8B
:100B0800E66E010E5324E16E000E5420E26E080ECC
:100B1800E66E020E5324E16E000E5420E26E280E9B
:100B2800E66E040EE66E53C0E1FF54C0E2FFC80E45
:040B3800E66E120053
:100B3C006D92699468A403D0FB0E6816FBD7120063
:0A0B4C006984EF0E68166D82120036
:040B5600A19A12004E
:100B5A00040E2E18006E00C02EF04350080A0AE157
:100B6A0022C46EFF6E50000803E2100E436E02D0DC
:100B7A00040E436E3450010A3AE1020E2E24E16E4D
:100B8A00000E2F20E26E280EE66E040EE66E43DD9E
:100B9A003550020A07E12EC0E1FF2FC0E2FF840EA2
:100BAA00E66E24D0040E2E18006E00C02EF02EC061
:100BBA00E9FF2FC0EAFFEECF00F000BC0CD0040E14
:100BCA002E18006E00C02EF02EC0E1FF2FC0E2FFEB
:100BDA00C80EE66E0BD0040E2E18006E00C02EF062
:100BEA002EC0E1FF2FC0E2FF880EE66E01D03BDE89
:020BFA001200E7
:100BFC0070A01CD032C0E9FF33C0EAFFEECF01F089
:100C0C000150800A12E12EC0E9FF2FC0EAFFEECF9F
:100C1C0001F0000E000A02E1840E011806E132C058
:100C2C00E1FF33C0E2FF8C0EE66E7090DF0E6816AB
:020C3C001200A4
:100C3E003450020A02E12ADE1ED013DE5250000AA0
:100C4E0019E1010E5324E16E000E5420E26E080EDF
:100C5E00E66E020E5324E16E000E5420E26E200E5C
:100C6E00E66E040EE66E53C0E1FF54C0E2FF8C0E3A
:080C7E00E66E01D0526A12007B
:100C8600DADD2A6A2B6A486A496A6A6A686ACCDDCA
:100C96006D8C6E6A716A6D9C466A476A000E475C87
:100CA60002E1080E465C17E246C000F047C001F0BC
:100CB600003600900136003600900136000E002402
:100CC600E16E040E0120E26EE66AE66AE66AE66A0C
:100CD600464A472AE3D7160E706E68A603D0F70E6B
:100CE6006816FBD73E6A576A586A596A6D98080EA5
:0C0CF6002E6E040E2F6E446A436A12003A
:100D02002EC0E9FF2FC0EAFFEECF00F000AE05D003
:100D12002EC0E1FF2FC0E2FFE66A356A346A3F6AFD
:0C0D2200406A3E6A1ADDB4DD3EDE1200BD
:100D2E0000017A51000A12E079C000F0000E016E47
:100D3E000036009001362E0E0024E96E000E0120C2
:100D4E00EA6EEECF04F0EECF05F011D079C000F0D0
:100D5E00000E016E003600900136360E0024E96E4C
:100D6E00000E0120EA6EEECF04F0EECF05F0020E7B
:100D7E000424E16E000E0520E26E7BC0E6FF7CC00F
:100D8E00E6FF010E0424E16E000E0520E26E7DC02A
:100D9E00E6FF04C0E9FF05C0EAFFEECF00F004C095
:100DAE00E1FF05C0E2FF400E0014E66E04C0E9FF4D
:100DBE0005C0EAFFEECF00F0880E001204C0E1FF7E
:100DCE0005C0E2FF00C0E6FF7A51000A1BE079C0C1
:100DDE0000F0000E016E0036009001362E0E00243B
:100DEE00026E000E0120036E02C0E9FF03C0EAFF8F
:100DFE00040EEE18006E02C0E1FF03C0E2FF00C059
:100E0E00E6FF1AD079C000F0000E016E0036009099
:100E1E000136360E0024026E000E0120036E02C053
:100E2E00E9FF03C0EAFF040EEE18006E02C0E1FFF8
:100E3E0003C0E2FF00C0E6FF04C000F005C001F0F1
:020E4E00120090
:100E5000380E006E170E016E000E026E0E0E00248C
:100E6000F66E000E0120F76E000E0220F86E0900EB
:100E7000F5CF03F003C004F00F0E0024F66E000E51
:100E80000120F76E000E0220F86E0900F5CF01F088
:100E90000150035C12E2380E006E170E016E000E58
:100EA000026E0F0E0024F66E000E0120F76E000E8B
:100EB0000220F86E0900F5CF04F0380E006E170E10
:100EC000016E000E026E100E0024F66E000E012060
:100ED000F76E000E0220F86E0900F5CF01F0015008
:100EE000045C12E2380E006E170E016E000E026EE8
:100EF000100E0024F66E000E0120F76E000E022088
:0E0F0000F86E0900F5CF04F004C000F01200F6
:100F0E0000017C6B7D6B7E6B020E7925F66E000EFA
:100F1E007A21F76E000E7B21F86E0900F5CF05F0F1
:100F2E00030E7925F66E000E7A21F76E000E7B21E8
:100F3E00F86E0900F5CF00F000C003F0000E046E4D
:100F4E0003C001F0006A05500024066E000E012059
:100F5E00076E79C008F07AC009F07BC00AF0010E66
:100F6E000824F66E000E0920F76E000E0A20F86EA9
:100F7E000900F5CF01F00150020A1BE1060E08240C
:100F8E00F66E000E0920F76E000E0A20F86E0900AC
:100F9E00F5CF01F001507C5D0CE2060E0824F66ED2
:100FAE00000E0920F76E000E0A20F86E0900F5CF2C
:100FBE007CF0010E0824F66E000E0920F76E000E6E
:100FCE000A20F86E0900F5CF01F00150040A1BE16A
:100FDE00080E0824F66E000E0920F76E000E0A2089
:100FEE00F86E0900F5CF01F001507C5D0CE2080EA1
:100FFE000824F66E000E0920F76E000E0A20F86E19
:10100E000900F5CF7CF008C0F6FF09C0F7FF0AC053
:10101E00F8FF0900F5CF00F000507D25016E000E9F
:10102E007E21026E01C07DF002C07EF00750025C90
:10103E0002E10650015C01E30FD008C0F6FF09C0C3
:10104E00F7FF0AC0F8FF0900F5CF00F000500826A0
:0E105E00000E09220A2283D77CC000F0120087
:10106C00000E00017A1902E1000E791902E1016A01
:10107C000AD079C0E9FF7AC0EAFFEECF00F0000E8B
:0C108C0000BE010E016E01C000F0120059
:0A109800D08EA28AA08AF28E120008
:1010A2004350000A0AE16D6A696A17EC04F06DB6F2
:1010B20002D06D86FCD7010E436E4350010A08E14F
:1010C2006DBA06D0686A696A69806988020E436EE1
:1010D20068A405D069A403D0FB0E68162EDD6DA2AC
:1010E20002D038DDD6D068A018D069A016D0CADDEB
:1010F200040E436E200E0401026F040E036F080EED
:10110200016F000E0015006E00C000F48C0E00117D
:10111200006E00C000F4FE0E681668A805D069A82B
:1011220003D013DDEF0E681668AC04D069AC02D0B0
:10113200BF0E681668AA03D069AA01D05EDD68A254
:1011420002D069B26A6A040E435C02E203DDA1D0F6
:1011520069A69ED000017A6B040E7A5DD8B098D051
:1011620068A692D06CCF50F0F70E6816780E501425
:10117200016E0150000AD8A486D0FD0E5014016EF3
:10118200026AFF0E0216000E021802E1000E01189A
:101192006CE17E0E5014016E01C003F00332039E17
:1011A20003C000F0000E016E0036009001360036DA
:1011B20000900136000E0024026E040E0120036E20
:1011C20002C032F003C033F002C053F003C054F047
:1011D200040E5318006E00C053F002C0E9FF03C0B2
:1011E200EAFFEECF00F000C001F03C0E0116013222
:1011F200019E0132019E01500D0A35E1020E322498
:10120200E96E000E3320EA6EEECF01F0EECF02F06F
:101212000250040A02E1280E011823E10001020E25
:101222003224E16E000E3320E26E200EE66E040ED2
:10123200E66E796B080E795D14E2200EE16E040E03
:10124200E26E7951E126D8B0E22A280EE96E040E48
:10125200EA6E7951E926D8B0EA2AEECFE6FF792B79
:10126200E9D74EDD01D0EADC0DD0FD0E5014016E3F
:10127200026AFF0E0216000E021802E1040E0118A5
:1012820001E16ADC00D001D003D000017A2B64D7DF
:0412920061DC120009
:101296004350000A0BE16D6A696A17EC04F0F9DE47
:0E12A6006DB602D06D86FCD7010E436E1200AD
:1012B4000001606B200E435C03E36DB201D002D0E9
:1012C400006A2DD02AC079F02BC07AF0CDDE00520E
:1012D40025E12AC077F02BC078F0000E2B1802E12C
:1012E400000E2A180AE0010E7725E96E000E782117
:1012F400EA6EEECF00F000C060F076C079F07A6B51
:1013040073C07BF074C07CF075C07DF00EDD00C04E
:101314002AF001C02BF060C000F001D0006A120076
:10132400200E435C03E36DB201D002D0006A4ED0BC
:1013340048C079F049C07AF097DE005246E176C0A1
:1013440079F0010E7A6F73C07BF074C07CF075C0C5
:101354007DF0EBDC00C048F001C049F04C6A4D6AF6
:101364004E6A4F6A48C079F049C07AF07DDE005277
:1013740016E0200E435C03E36DB201D002D0006A94
:1013840025D0010E016E0150000A01E188DE4C50A7
:101394004D104E104F1002E0006A18D0E3D748C039
:1013A40077F049C078F0000E491802E1000E4818A1
:1013B4000AE0010E00017725E96E000E7821EA6E3D
:0E13C400EECF00F003D0006A01D0006A1200E4
:1013D2003EDD00C060F0D80E0001796F160E7A6F04
:1013E200000E7B6F93DD00C073F06051005C03E27E
:0C13F20060C000F002D073C000F01200D8
:1013FE000900F5CFE6FF0006FBE10106F9E1120058
:10140E004350010A07E16DBA05D0686A69806988A0
:10141E00020E436E68A406D069A404D0FB0E6816B3
:10142E009EEC05F06DA203D0ABEC05F0DDD068A00C
:10143E0018D069A016D020DC040E436E200E0401D5
:10144E00026F040E036F080E016F000E0015006E82
:10145E0000C000F48C0E0011006E00C000F4FE0EF1
:10146E00681668A806D069A804D0A6EC05F0EF0EA1
:10147E00681668AC04D069AC02D0BF0E681668AAB4
:10148E0004D069AA02D0FEEC05F068A202D069B2BF
:10149E006A6A040E435C03E2ABEC05F0A5D069A6C4
:1014AE00A1D00001806B040E805DD8B09BD068A6E1
:1014BE0095D06CCF50F0F70E6816780E5014016E62
:1014CE000150000AD8A489D0FD0E5014016E026A94
:1014DE00FF0E0216000E021802E1000E01186EE158
:1014EE007E0E5014016E01C003F00332039E03C042
:1014FE0000F0000E016E00360090013600360090AE
:10150E000136000E0024026E040E0120036E02C08E
:10151E0032F003C033F002C053F003C054F0040E97
:10152E005318006E00C053F002C0E9FF03C0EAFF7B
:10153E00EECF00F000C001F03C0E01160132019E0C
:10154E000132019E01500D0A36E1020E3224E96E7F
:10155E00000E3320EA6EEECF01F0EECF02F0025015
:10156E00040A02E1280E011823E10001020E3224C2
:10157E00E16E000E3320E26E200EE66E040EE66E75
:10158E007F6B080E7F5D14E2200EE16E040EE26E9C
:10159E007F51E126D8B0E22A280EE96E040EEA6EDB
:1015AE007F51E926D8B0EA2AEECFE6FF7F2BE9D7A6
:1015BE0081EC06F002D01FEC06F00ED0FD0E50149A
:1015CE00016E026AFF0E0216000E021802E1040EF0
:1015DE00011802E1ADEC05F000D001D003D00001FE
:0A15EE00802B61D7ABEC05F0120072
:1015F800ECDE00C045F0010E5F6E6FC02CF070C0CD
:101608002DF071C04AF072C04BF043EC06F0010EA9
:0C161800016E0150010A01E13ADE1200EF
:101624002CC073F02DC074F0400E0001756F010ED4
:06163400766F3EDE12009D
:10163A006FC073F070C074F071C075F0010E0001D4
:06164A00766F6BDE12005A
:10165000296A0F0EC112070EB412816A8A6A93803A
:10166000F19E846A8D6A9692000E00016F6F050EDE
:10167000706F400E716F050E726FBEDFF292F288CE
:10168000F18CA19AA08AF28EF28CCCDF0050000A75
:1016900016E005010051010A04E184824F0E486FF3
:1016A00006D00051000A03E18492460E486F400EB6
:1016B00000016F6F050E706F400E716FBEDF41A0AD
:1016C00009D04190400E00016F6F050E706F400E03
:0816D000716FB3DFDAD7FFD719
:1016D8000902290001010080320904000002030008
:1016E80000000921010100012221000705810340B2
:0916F80000010705010340000197
:101701000600FF0901A10119012940150026FF006A
:10171100750895408102190129407508954091028B
:01172100C007
:10172200160355005300420020004D0069006B0073
:0617320072006F0043008D
:101738001201000200000008D804010000010102A3
:0217480000019E
:10174A0012035500530042005F004D006900720009
:02175A00750018
:04175C000403090475
:020000040030CA
:0E000000240C3E1EFF8081FF0FC00FE00F405A
:00000001FF
